:020000041000EA
:1000000000B5324B212058609868022188439860DF
:10001000D860186158612E4B002199600221596106
:100020000121F02299502B49196001219960352056
:1000300000F044F80222904214D00621196600F024
:1000400034F8196E01211966002018661A6600F04E
:100050002CF8196E196E196E052000F02FF8012189
:100060000842F9D1002199601B49196000215960AB
:100070001A491B48016001219960EB211966A021F2
:10008000196600F012F800219960164914480160C1
:100090000121996001BC002800D000471248134993
:1000A000086003C880F30888084703B5996A0420EC
:1000B0000142FBD001200142F8D103BD02B5186610
:1000C0001866FFF7F2FF186E186E02BD00000240BE
:1000D000000000180000070000035F00212200005C
:1000E000F4000018222000A00001001008ED00E03C
:1000F00000000000000000000000000074B24E7A12
:1001000000200420F7010010C3010010C5010010F9
:10011000C1010010C1010010C1010010C101001097
:10012000C1010010C1010010C1010010C701001081
:10013000C1010010C1010010C9010010CB01001065
:10014000CD010010CD010010CD010010CD01001037
:10015000CD010010CD010010CD010010CD01001027
:10016000CD010010CD010010CD010010CD01001017
:10017000CD010010CD010010CD010010CD01001007
:10018000CD010010CD010010CD010010CD010010F7
:10019000CD010010CD010010CD010010CD010010E7
:1001A000CD010010CD010010CD010010CD010010D7
:1001B000CD010010CD010010CD010010CD010010C7
:1001C00000BE00BE00BE00BE00BE00BE00F051F882
:1001D000103800BEF2EB8871E00200100C03001032
:1001E0003402001090A31AE700202449086006C8D2
:1001F00081F30888104722480068002835D10DA4F3
:100200000ECC002902D000F012F8F9E71D491E4A71
:10021000002000E001C19142FCD11C4988471C49E3
:1002200088471C49884700BEFDE701C901C29A42C0
:10023000FBD370470C030010C0000020E8D700205B
:1002400034DA0010F0D7002078FA0020BCFC00104F
:100250000000042000000420BCFC0010001004205A
:10026000001004200000000070470B4800F018F850
:100270000047EFF30580C0B27047000008ED00E0D2
:10028000000000D078FA00205808022061230020E6
:10029000890A002085240020575600000000000035
:1002A00001B40248844601BC604700BF2D400020D5
:1002B00006005250ABB3605324E4002006005250B5
:1002C000861C030234E40020060052505422A29DF2
:1002D00044E4002005005250DE65F468BCFC0010C8
:1002E000D4020010C8020010BC02001050E400202C
:1002F000B00200105CE4002068E4002074E40020F8
:0C030000B0E40020BCE40020F0E4002089
:10030C00F8B5C0460448054B10B5834203D0044BE6
:10031C00002B00D0984710BD78FA002078FA002006
:10032C000000000006480749091A8B10C90FC918AC
:10033C0010B5491003D0044B002B00D0984710BDCA
:10034C0078FA002078FA00200000000010B5074C65
:10035C002378002B09D1FFF7D5FF054B002B02D0DA
:10036C00044800E000BF0123237010BD80FB002077
:10037C0000000000E8D70020054B10B5002B03D07F
:10038C000449054800E000BFFFF7CCFF10BDC04694
:10039C000000000084FB0020E8D7002010B51848AE
:1003AC0005F00EFA174805F00BFA0A2005F074F860
:1003BC00154805F005FA154805F002FA144805F041
:1003CC00FFF9144805F0FCF9134805F0F9F9134846
:1003DC0005F0F6F9124805F0F3F9124805F0F0F9BA
:1003EC00114805F0EDF9114805F0EAF9104805F04F
:1003FC00E7F9104805F0E4F90F4805F0E1F910BDF4
:10040C0088DB002090DB002098DB0020ACDB002098
:10041C00B8DB0020D4DB0020E8DB002004DC00206B
:10042C001CDC002034DC00204CDC002064DC0020D0
:10043C007CDC002090DC0020A8DC0020F0B5DE463F
:10044C00574645464E460023E0B58DB01D2200218F
:10045C0004A80393D02404F00FFF802324061B036D
:10046C00636180235B03A36100230193CE4B0125C1
:10047C009B4603AF019B1A0391461D4200D0B3E18A
:10048C0080239B03A361019B9B0700D5A8E18023DC
:10049C00DB03A361019B5B0700D59DE18023DB049B
:1004AC00A361019BDB1000D092E180231B05A361AB
:1004BC000026EFE0A361B30700D5FAE080239B0090
:1004CC00A361730700D5FAE08023DB00A361330737
:1004DC0000D5FAE080231B01A361F30600D5FAE0F6
:1004EC0080235B01A361B30600D5FAE080239B0156
:1004FC00A361730600D5FAE08023DB01A361330608
:10050C0000D5FAE080231B02A361F30500D5FAE0C5
:10051C0080235B02A361B30500D5FAE080239B0224
:10052C00A361B31200D0FAE08023DB02A361642044
:10053C00002101F085FB80231B030A200021A3610D
:10054C0001F07EFB80235B039A460A200021636145
:10055C0001F076FB53460021A3610A2001F070FBE9
:10056C006168636829405B081D4201D0022319436E
:10057C0063689B081D4201D0042319436368DB08A0
:10058C001D4201D00823194363681B091D4201D089
:10059C001023194363685B091D4201D020231943C2
:1005AC0063689B091D4201D0402319436368DB0932
:1005BC001D4201D08023194348467C4BCAB21A54C1
:1005CC0068207B4B5B5C834300D12E22434658460C
:1005DC00FA5405F0F5F843461F2B00D1A8E0802310
:1005EC001B030A200021636101F02AFB80235B03BB
:1005FC009A460A200021636101F022FB5346002138
:10060C00A3610A2001F01CFB6168636829405B0848
:10061C001D4201D00223194363689B081D4201D07F
:10062C00042319436368DB081D4201D008231943D6
:10063C0063681B091D4201D01023194363685B09D1
:10064C001D4201D02023194363689B091D4201D030
:10065C00402319436368DB091D4201D080231943F1
:10066C0002239C46E1444846524BCAB21A546820B5
:10067C004F4B5B5C834300D12E2243465846FA54C1
:10068C0005F09EF843461F2B5AD0802301361B01E0
:10069C009E4261D01F231A0032409046334242D012
:1006AC0080235B00354200D104E76361B30700D4BB
:1006BC0004E780239B006361730700D404E7802365
:1006CC00DB006361330700D404E780231B01636103
:1006DC00F30600D404E780235B016361B30600D406
:1006EC0004E780239B016361730600D404E7802335
:1006FC00DB016361330600D404E780231B026361D2
:10070C00F30500D404E780235B026361B30500D4D6
:10071C0004E780239B026361B31200D104E78023BA
:10072C00DB02636103E73100234805F049F8B7E7C2
:10073C000022013339002148FA5405F041F84EE704
:10074C000022013339001D48FA5405F039F8802392
:10075C0001361B019E429DD1019B01330193102B4D
:10076C0000D087E6164C174B22001B6823CB23C204
:10077C0003CB03C280218020E36849010133E3608D
:10078C00114B40032360114B63600DF035FA802050
:10079C001422210040030DF06FFA0DB03CBC9046C2
:1007AC009946A246AB46F0BD00DD00209005012025
:1007BC00ADE600208F050120F8DC002008DD0020CC
:1007CC007C0501209CEF00203401AACF2356BBCF1F
:1007DC0080231B0563616BE68023DB04636160E6A9
:1007EC008023DB03636155E680239B0363614AE648
:1007FC0070B5FFF723FE224B00211C6880235B029F
:10080C009C4664441F4B0D04E31802E00133A342E1
:10081C000DD01A78FF2AF9D080235B029C46013157
:10082C0064440429EED1184804F0CAFF70BD17487F
:10083C0004F0C6FF8022164B1649E81852020DF040
:10084C001BFA154804F0BCFF144C154B22001B6816
:10085C0023CB23C203CB03C280218020236949010F
:10086C00013323610F4B400323600F4B63600DF08A
:10087C00C3F980201422210040030DF0FDF9D5E7C7
:10088C00A4EF00200000FFFF10DD0020C4DC0020DE
:10089C000010100090050120E0DC00207C050120F8
:1008AC009CEF00203401AACF2356BBCF30B5204893
:1008BC009BB004F043FE1F4804F082FF01A91E48C0
:1008CC0008F01EFA1D4B986A08F036F81C4B019A7A
:1008DC009A4201D01BB030BD08F038F8431C01001F
:1008EC0004001848009304F06BFF6946164808F0A2
:1008FC0007FA009B9C42EDD10124144804F060FFE0
:10090C00134DFA20800001F0B3F9210028000134C6
:10091C0004F056FF0B2CF4D10E4804F051FF80214B
:10092C000D48C9020DF068F90C4804F049FFD1E7F5
:10093C0078DD002094DD0020B0DD00200040054073
:10094C0059657300B8DD002094DE0020CCDD00205A
:10095C00F4DD0020FCDD0020001010000CDE002077
:10096C00F0B5DE46454657464E460024E0B5B6483F
:10097C0083B004F0E3FDB54D2100280004F020FF06
:10098C00FA20800001F074F9FA20800004F02AFFAC
:10099C00431C012B01D9FF2809D10134052CEBD1C3
:1009AC0003B03CBC90469946A246AB46F0BD010054
:1009BC00A74804F005FFFFF7F1FCA64C200004F05B
:1009CC00FFFE80235B019846A34BA44F9B46FA2065
:1009DC00800004F007FF431CF9D003003F3B3B2B86
:1009EC0002D89B00FB589F4601009D4804F0E8FE8E
:1009FC00200004F0E5FEEAE79A4D9B4B2A001B68A9
:100A0C0043CB43C203CB03C20023EB608021802085
:100A1C00964B49012B60964B40036B600DF0ECF844
:100A2C0080201422290040030DF026F9200004F048
:100A3C00C7FECCE78F4804F0C3FE01A98E4808F02E
:100A4C005FF9019D8D48290004F0BAFE8C4B8D4E48
:100A5C001A682B04914699440F2300259A460AE004
:100A6C004B463000595D04F0ABFE802301355B0230
:100A7C009D4200D1A8E053462B42F1D10A2004F04C
:100A8C000BFDEDE780218048490104F099FE80219F
:100A9C007E48490004F094FE7D4804F091FE0A2043
:100AAC0004F0FAFC7B4B00251B68764E9A460F230C
:100ABC00994608E053463000595D013504F080FE3C
:100ACC00142D00D190E04B462B42F3D10A2004F0B8
:100ADC00E3FCEFE7200004F073FE61E76E4804F0DE
:100AEC006FFE0A2004F0D8FC200004F069FE6EE7CB
:100AFC0080218020490140030DF07EF8200004F095
:100B0C005FFE64E7574D584B2A001B6843CB43C22A
:100B1C0003CB03C200232B6178E7524D524B2A00C2
:100B2C001B6843CB43C203CB03C20023AB606DE70E
:100B3C004C4D4D4B2A001B6843CB43C203CB03C225
:100B4C000123AB6062E7534B00251B684D4E9A4660
:100B5C000F23994608E053463000595D013504F0E7
:100B6C002FFE454500D161E74B462B42F3D10A20BD
:100B7C0004F092FCEFE7494804F0E0FC802148487F
:100B8C00490204F01DFE3E4B00269A46454B0025BB
:100B9C009946802253465202944619688B19614437
:100BAC00891902E001338B4232D01A78FF2AF9D02E
:100BBC005A462900484604F003FE80235B029C46FB
:100BCC0001356644042DE4D10A2004F065FC2DE7C0
:100BDC00FFF76CFE200004F0F3FDF8E6FFF7DEFBF8
:100BEC00200004F0EDFDF2E60A2004F055FC1E4D49
:100BFC001E4A2B681968914203D11D4A5B689342C7
:100C0C0008D0294804F0DCFD200004F0D9FDDEE614
:100C1C00264ACEE7264804F0D3FD2B689B68012BAF
:100C2C000ED92449244804F0CBFD2B682348D968FD
:100C3C0004F0C6FD2B682248196904F0C1FDC3E716
:100C4C00204A9B009958EDE714DE002038DE002086
:100C5C0040DF002084DB00202CDD002050DF002052
:100C6C0028DF00207C0501209CEF00203401AACF56
:100C7C002356BBCF58DE002094DE00206CDD002014
:100C8C00A4EF00207CDB002068DE002080DE00204A
:100C9C0098DE0020A0EF002040DE00203CDD00208C
:100CAC0048DD002060DD00200CDF002034DD00205A
:100CBC00ACDE0020F0DC0020C4DE0020DCDE0020F6
:100CCC00F4DE0020A8EF0020F0B5C64600B504F015
:100CDC0083FD474800F0CCFF464804F02FFCFA2077
:100CEC00800000F0C5FFFFF73BFE192000F0ACF8C8
:100CFC00D024802324069B0463623F48636104F084
:100D0C005FFDFA20800000F0B3FF2C2398460127EA
:100D1C003A4DA84440CD300000F096F83B00B3406B
:100D2C0063624545F6D1152000F08EF880239B03B5
:100D3C006362162000F088F88023DB0363621A20BC
:100D4C0000F082F88023DB0463621B2000F07CF847
:100D5C0080231B0563622023D02598460127284C4D
:100D6C002D06A04440CC300000F06EF83B00B340A0
:100D7C00AB62A045F6D1132000F066F880231B036C
:100D8C006B62142000F060F880235B036B621D4BD8
:100D9C001B689B68002B17D0012B1FD01A4804F03E
:100DAC000FFD1A4804F00CFDD0250A20802404F015
:100DBC0073FB2D06A404FA2000F05AFFFA20AC6154
:100DCC0000F056FF6C61F6E7114804F0B7FBFA200F
:100DDC00800000F04DFFFFF731FBE2E70D4804F017
:100DEC00ADFBFA20800000F043FFFFF701FDD8E7D0
:100DFC00B80B000040E0002058E00020B4E00020D8
:100E0C00E0E000209CEF002084E0002094E0002033
:100E1C006CE0002078E00020094A830094464022D0
:100E2C00634410B51C68C0006240C024144080228A
:100E3C00520113431C60034B9C466044416010BD3F
:100E4C0004C00140004001400123D022834012061F
:100E5C0093629361094A8300944640226344196863
:100E6C00C0004A40C0211140802252011343196036
:100E7C00034B9C46052360444360704704C001400B
:100E8C0000400140F8B5EFF3108772B60E4E336890
:100E9C00002BFCD0BFF35F8FCB08C4180725A446EA
:100EAC00C45C01230D40AB4018002040234208D104
:100EBC00624623431370BFF35F8F306087F3108853
:100ECC00F8BD100001F01AFC2C0100D0F8B5CE468C
:100EDC0047468C4680B5EFF3108872B6214D2C68CE
:100EEC00002CFCD0BFF35F8F9A422CD8D40807217A
:100EFC00055D0619012411408C402C421FD007219E
:100F0C008946063909E0D408055D06194C460F00E0
:100F1C001440A7403C002F4211D001329342F2D230
:100F2C0001204042BFF35F8F00220E4B1A6088F302
:100F3C00108800280FDB0CBC90469946F8BD2C435A
:100F4C0010003470EEE7BFF35F8F00232B6088F343
:100F5C001088012040426346002BECD0089801F029
:100F6C00CDFBC0462C0100D0024B18688007C00F87
:100F7C007047C04600C006400021044B044ABFF332
:100F8C005F8F02C39342FAD17047C046000100D074
:100F9C00800100D0044A1078431CDBB2172B00D917
:100FAC00102313707047C046B0EF002000B5054BFE
:100FBC0083B00100009318221F230348FFF786FF1C
:100FCC0003B000BD00E10020740001200123834028
:100FDC00002904D0034A1360034A13607047034A84
:100FEC001360FBE780E200E000E100E080E100E05C
:100FFC0001238340014A13607047C04600E200E0C1
:10100C00084B10309B688000C358002B07D0064A51
:10101C0000209B1A2F229A424041C0B270470020F8
:10102C00FCE7C04600ED00E0B4EF0020024B1030AE
:10103C009B688000C058704700ED00E070B50D0053
:10104C00EFF3108672B60F4A1368002BFCD0BFF377
:10105C005F8F0D4B10309B6884001B590B4A9342D9
:10106C0003D09D4201D001F061FB074B9B681D51E1
:10107C00BFF35F8FBFF35F8F0022024B1A6086F3C2
:10108C00108870BD240100D000ED00E0CD010010EF
:10109C00F0B557464E464546DE46E0B5894683B028
:1010AC0005001700EFF3108A72B65E4A1368002B26
:1010BC00FCD0BFF35F8F00205B4B18569B4600287B
:1010CC006DDB5A464400594E2418A4003319984637
:1010DC009B7910351370564BAA009B6801929B5854
:1010EC009C469B1B2F2B29D8012261469143CB791F
:1010FC00BB4208D86BE053009B189B00F318DD79BA
:10110C00BD4252D9190006228A56002AF3DABD26AE
:10111C000B1D9B46360243465C46043B1B1B1B05C2
:10112C00444C5B0D23438B80887141468A714A463F
:10113C00414B8E800B60CF718A601BE03F4B9C450E
:10114C0042D142463E4B023413803E4B3619043B8F
:10115C009E1B3605374B760D1E433B4B56809380BA
:10116C00FF23D771937143464A469A600123424646
:10117C001A43944661462E4B019A9B689950BFF3D3
:10118C005F8FBFF35F8F0022264B1A608AF31088A3
:10119C0003B03CBC90469946A246AB46F0BD01F06C
:1011AC00C5FA5B46002018568BE70B1D9B468B88B7
:1011BC0004345B051B155B4436199E1BE023360576
:1011CC00760D1B021E43A6E701F0B0FAB9E74546BF
:1011DC000B001E489B1B5B415843000D184B2B808A
:1011EC00A31C9C46B4446546164B0434043B5B1B61
:1011FC001B05104D5B0DAC462B43454636196B80D9
:10120C000B1F9E1B6346A87148463605760D1E4380
:10121C00094BAE80EF71A8600B60434613439C46AC
:10122C00A8E7C046240100D076050120B4EF0020C9
:10123C0000ED00E000E0FFFF01488047CD01001009
:10124C0000A1FFFFE4EF002000BDFFFFAAAA0000F1
:10125C00F0B5DE4657464E464546E0B50C0083B029
:10126C00EFF3108A72B65A4A1368002BFCD0BFF306
:10127C005F8F1022914681444A46564B96009B68DC
:10128C009D59554B98469D4205D0A54216D0534FBB
:10129C00EB1B2F2B14D94F4B9B689D51BFF35F8FCA
:1012AC00BFF35F8F00224A4B1A608AF3108803B099
:1012BC003CBC90469946A246AB46F0BD1D00EAE701
:1012CC00012383409B465A46454B1B681A400092AB
:1012DC005A46444B1A60BFF35F8F0CF09DFB019094
:1012EC00002803D0814501D001F020FA01232A0007
:1012FC009A4393689C4208D160E04B005B189B00BA
:10130C00FB189968A14211D01A00062151560029E8
:10131C00F3DA009B002B05D05A46334B1A60304B46
:10132C001A60B8E75A462F4B1A60B4E70621595693
:10133C00002922DB4A00501880003C188046A06827
:10134C009860E079D871062020569871A0797F2892
:10135C0024D8A488F81A6405241544440019E02400
:10136C000005400D24022043988052181F4B920018
:10137C00BF181A781970BA71CBE70199002910D1EE
:10138C00FF3191711A49918018490A789A71194A5A
:10139C00DB1B5B415A43120D0A70BAE7BD200002F9
:1013AC00E2E7154A1549D21A083A5002400D01439A
:1013BC009980134952080A43DA80AAE7062151564C
:1013CC0013000029B6DA019A002AEAD14546DBE778
:1013DC00240100D000ED00E0CD010010B4EF00209E
:1013EC0000E100E080E100E080E200E07605012011
:1013FC0000BDFFFFAAAA0000EEEF002000F0FFFFE7
:10140C0000F8FFFFF8B50125040005430CF004FBC0
:10141C000300EFF3108672B621490A68002AFCD04B
:10142C00BFF35F8F1F4A20001F49801A4041414380
:10143C00090D1E489B00876849B2FF58AF421CD06B
:10144C000623D3568B421CD01223D3568B4222D068
:10145C001E23D3568B4220D02A23D35603208B42F3
:10146C0010D0134B1A781970A271BFF35F8F002242
:10147C000B4B1A6086F31088F8BD82680D48D0506B
:10148C00EFE7002043001B189B00D218FF23937139
:10149C00094B9380E5E70120F4E70220F2E7C04610
:1014AC00240100D0B4EF0020AAAA000000ED00E057
:1014BC0076050120CD01001000BDFFFF054B064A4B
:1014CC001360064A136053609360D36013615361D9
:1014DC00936170478080808000E400E004E400E0C9
:1014EC00D02300B51B061B680100074883B0C01849
:1014FC00064B002200930523FFF7E8FC002801DBD4
:10150C001F23181A03B000BD700501201CE1002038
:10151C00024B9C46614489000160704740000034D6
:10152C0083680B4810B5844661446244090112017A
:10153C009A18591854684B6801209C4201D802D063
:10154C000020C0B210BD12680B689A42F9D8F7E7B8
:10155C00FFFFFF0F0A4B1968EFF3108072B60A6891
:10156C00002AFCD0BFF35F8F1B68BFF35F8F002294
:10157C001A6080F3108840BF002000217047C046DD
:10158C003C050120F8B557464E464546DE46E0B5CB
:10159C00434D81468A466A68EFF3108872B6136829
:1015AC00002BFCD0BFF35F8F2E68B47B002C3ED099
:1015BC00670033683F19033FDA195378B373002B74
:1015CC0000D1F3730023937053701370A968354ADC
:1015DC008C464946A2181201624411605146516072
:1015EC003149D36091603268D21993705370137083
:1015FC00737B9B46002B35D022001900B0687368B2
:10160C0098473268002820D05B4658465B005B4404
:10161C00D719033BB870D118D35C002B00D07B706A
:10162C005B460C7073735C451DD0002626E06B681E
:10163C00BFF35F8F1C6088F31088012040423CBCD4
:10164C0090469946A246AB46F8BD5B465B005B44B0
:10165C00033BD3189C70D119D25D002A00D05A706C
:10166C005B460B7074734A465346287D00F078FC39
:10167C00061EDAD02100286800F0B8FEEB686A6814
:10168C001B19013B1B78BFF35F8F0021116088F39E
:10169C0010880020002ED2D118022043CFE7C0467C
:1016AC00FCEF0020FFFFFF0F15130020F8B5574685
:1016BC0045464E46DE46E0B599460CAB19780DAB67
:1016CC001B78050090469A460768002912D1BE7B0C
:1016DC00002E45D074003B68A419033C1B195A78A2
:1016EC003100BA73002A00D1FA7300229A705A7032
:1016FC001A7003E00E004C006418033C2C4B0022C3
:10170C009C46AB6861449C464346090161440B60AE
:10171C004B464B600A9B8B600B9BCB603B681B1949
:10172C009A705A701A707B7B9B46002B2CD032001F
:10173C005946B8687B6898473A68002817D05B46CA
:10174C0058465B005B441419033BA070D118D35C62
:10175C00002B00D063705B460E707B73B34514D0C6
:10176C0030003CBC90469946A246AB46F8BD5B4661
:10177C005B005B44033BD3189E701119125D002A69
:10178C0000D05A705B460B707E7342464B46287DE8
:10179C0000F0E6FB041E06D05346002B03D13100AB
:1017AC00286800F023FE0E9B002BD9D01C70D7E7C5
:1017BC00FFFFFF0FF0B5DE464E4657464546002369
:1017CC00E0B58DB00A936B4B8200D3580B909946C1
:1017DC0000239B464B46079300F038FB079C060002
:1017EC000F006268EFF3108572B61368002BFCD003
:1017FC0022000794BFF35F8F2468637B9946002B0C
:10180C0067D092685C4B90464B441B01984443460E
:10181C001A685B6810001900801BB94100295FDD54
:10182C000B9800F09DFB00230026984600279A4653
:10183C00079C6368BFF35F8F5A461A6085F3108864
:10184C005346002B08D10028C6D10DB03CBC9046A5
:10185C009946A246AB46F0BD0A9B414618024B4640
:10186C001843D047089009916268EFF3108572B65F
:10187C001368002BFCD00794BFF35F8F0899099A6B
:10188C00002A48DB114303D0079B1B69002B5DD159
:10189C00079B1B68DA7B002A07D051008A1819684D
:1018AC008C4649466244033A51704A46DA734B46B9
:1018BC00079A013BD168CA5C0132CA545B46079A4D
:1018CC0013615368BFF35F8F5A461A6085F3108813
:1018DC0082E700230026984600279A460020A7E7B7
:1018EC00002901D100289BD10021200000F0E0FC50
:1018FC0043461E685F689B68079A9A464346DB68B6
:10190C009846D3684B44013B1B780A931B02034354
:10191C00136100208CE72369002BB9D033003C0005
:10192C005B1A94411A002300A74219D89F421BD07E
:10193C005946049101210391494602914146019176
:10194C00514607980091FFF7B1FEB7E700F07EFA19
:10195C00089A099B06000F0092197B419942E5D920
:10196C0001225242D317E3E79642E1D901225242B7
:10197C00D317DDE720050120FFFFFF0F10B5124C38
:10198C006368002B04D00A211048FFF7C1FD10BD7D
:10199C0023000F4A1021206800F0A8FB032000F060
:1019AC0049FA032000F04EFB03200A4900F092FA9A
:1019BC00FFF7F0FA084B9C46032360442375074B52
:1019CC0080006060DC60DEE7FCEF00203C0501205D
:1019DC00E112002075150020400000342005012084
:1019EC0000487047FCEF0020F0B557464546DE46F0
:1019FC004E46E0B585B0019310AB1B7800270393DE
:101A0C00002380469A46009243465A68EFF31089A9
:101A1C0072B61368002BFCD0BFF35F8F43461D6872
:101A2C00AC7B002C4FD066002B683619033E9B19FB
:101A3C005A78AA73002A00D1EA7342469F705F70ED
:101A4C001F709268524B94460099019AE3181B013F
:101A5C00634419605A600E9A9A600F9ADA602B6888
:101A6C009B199F705F701F706B7B9B46002B46D041
:101A7C0022001900A8686B6898472A68002831D0A2
:101A8C005B4658465B005B449619033BB070D1181B
:101A9C00D35C002B00D073705B460C706B735C4591
:101AAC002ED04346DB681B19013B187843465B6814
:101ABC00BFF35F8F1F6089F310885346002B2ED124
:101ACC000002204307E05B68BFF35F8F1C6089F363
:101ADC0010880120404205B03CBC90469946A24675
:101AEC00AB46F0BD5B465B005B44033BD3189C707C
:101AFC009119925D002A00D05A705B460B706C7382
:101B0C004346187D009A019B00F02AFA8246002871
:101B1C00C7D043462100186800F068FCC1E7039B5E
:101B2C00002B32D00E9B00200F9998470300040025
:101B3C000D000B4329D000290DDA00980199020001
:101B4C000B00121BAB41994215D81AD0009201938D
:101B5C00039B9A4658E700F079F902000B00A41891
:101B6C005D412000290000900191AB4203D8EFD1D8
:101B7C0000998A42ECD901235B42DC170093019453
:101B8C00E6E700999142E1D9F5E70020A3E7C046CA
:101B9C00FFFFFF0FF0B504000D0006267642F71785
:101BAC00C64636196F4100B58F4213D810D000F0DD
:101BBC004DF932003B00121A8B41002B14DC002B28
:101BCC0037D02900200000F075F904BC9046F0BD18
:101BDC008642ECD90026002700F038F932003B0091
:101BEC00121A8B41002BEADD30003900FFF7CAFCDA
:101BFC000028E6DB00239846BC460F4A0F4F7B6A51
:101C0C009C4504D8B96A8E42DBD99C45D9D1116860
:101C1C00EFF3108072B60B68002BFCD0BFF35F8F14
:101C2C001368BFF35F8F4146196080F3108820BFA3
:101C3C00E5E7002AC5D0D7E73C0501200040054068
:101C4C0070B504000D0000F001F902000B0020003B
:101C5C002900801859418B4205D802D0FFF79AFF12
:101C6C0070BD8242FAD901204042C117F6E7C04646
:101C7C0070B5060000F0EAF8FA2204000D0000230B
:101C8C0030000021920003F051FA001969418D4295
:101C9C0005D802D0FFF77EFF70BD8442FAD901202F
:101CAC004042C117F6E7C046F8B5CE46474680B568
:101CBC0006000C00FFF766FC00280CDC2D4B002006
:101CCC00596A8C4203D89B6A0130B34245D30CBC91
:101CDC0090469946F8BD20BF274D6A68EFF31087F0
:101CEC0072B61368002BFCD0BFF35F8F2B68C1B2A8
:101CFC009C465B7B8B4235D0FF2303405A009146B8
:101D0C0062461268994490464A464244033A927895
:101D1C00002A1DD0EA68000A90464344013B1B7818
:101D2C00C0B2834221D06B68BFF35F8F00221A6070
:101D3C0087F310880F4A0020536A9C42C7D8926AD6
:101D4C000130B242C3D2E41A601E8441E0B2BEE755
:101D5C002B699842E7D12A61E5E7641A601E844139
:101D6C00E0B2B4E7FF230340D4E7604600F03EFB4B
:101D7C00D9E7C04600400540FCEF0020F0B5D64640
:101D8C004F464646C0B5EFF305833F22134018007B
:101D9C001038EFF3108C72B6204D2A68002AFCD054
:101DAC00BFF35F8F0122110081401D4C8846616397
:101DBC001C4917000E788A463100C1400F400A4278
:101DCC0015D019498200646A51588C4219D3174BAB
:101DDC00D25843469E4353461E70BFF35F8F002379
:101DEC002B608CF31088002A06D0904704E0BFF3D8
:101DFC005F8F2F608CF310881CBC90469946A246CE
:101E0C00F0BD0B4A9B00904643441A681A60BFF31E
:101E1C005F8F00232B608CF31088EDE7280100D036
:101E2C0000400540790501204805012064FF002091
:101E3C00D03F054010B50100024A0348FFF722F8D5
:101E4C0010BDC04640E1002075050120034B596AC6
:101E5C000A00986A596A8A42FAD1704700400540D4
:101E6C0070B504000D00124A536A1900966A536A41
:101E7C008B42FAD13000190024184D41AB4211D8D5
:101E8C000ED02B000A494A6A9A42FCD307D1084A61
:101E9C0002E0516A994202D1916AA142F9D370BD14
:101EAC00A642EED9012301246442E5175B42E9E71F
:101EBC0000400540064A536A9942FCD807D1044BAE
:101ECC0002E05A6A914202D19A6A8242F9D370476F
:101EDC000040054070B504000D00EFF3108672B69B
:101EEC001A4A1368002BFCD0BFF35F8F002D1BD058
:101EFC002000FFF79BF8164981420AD02000FFF71B
:101F0C009DF801212000FFF761F80123A340114A3D
:101F1C001360114BA400E550BFF35F8F00220B4BF5
:101F2C001A6086F3108870BD0B4BA200D5500122AD
:101F3C00A2400A4920000B7893430B700449FFF729
:101F4C0087F900212000FFF741F8E5E7280100D0D0
:101F5C003D1B00203860054064FF002079050120FE
:101F6C00F0B54F46D6464646C0B50700304C616AC0
:101F7C000D00A66A616AA942FAD18B4208D805D035
:101F8C0001201CBC90469946A246F0BDB242F7D93E
:101F9C00EFF3108972B6274801680029FCD0BFF313
:101FAC005F8F01252449BD408C460978204C0E00DA
:101FBC002E438846F1B28A46614650460870391D58
:101FCC001E48890065630A51B9000B50216A002034
:101FDC00294219D0616A0800A66A616A8142FAD165
:101FEC008B4219D801D1B24216D8C2451DD0104B24
:101FFC001F201D625D6301230740BB40104A1E3841
:10200C001360634642461A70BFF35F8F0022094B80
:10201C001A6089F31088B4E70020BFF35F8F0022A9
:10202C00044B1A6089F31088ABE70120ECE7C0463B
:10203C0000400540280100D0790501204805012009
:10204C0080E200E010B5EFF3108472B60A490B6819
:10205C00002BFCD0BFF35F8F01238340074A084855
:10206C00136202789A430270BFF35F8F00230B60F8
:10207C0084F3108810BDC046280100D000400540F4
:10208C007905012070B505000E001400002924D03C
:10209C00002A24D080686B689847296800280ED0E5
:1020AC0063001B197200033B9219CB18033A9E7004
:1020BC0088188A5C002A14D1047030000EE073007A
:1020CC009B196200033B1219CB18033A9C708818B9
:1020DC008A5C002A00D05A700670200070BD08007F
:1020EC00FCE75A7004703000F8E7C04630B58360E6
:1020FC000023CCB243730133047342608373C47303
:10210C000D000068012C06D9421C0133DBB21370A0
:10211C0003329C42F9D1FF2129404B00591800236E
:10212C0040180338437030BDF8B5CE46474606001C
:10213C000C0080B5002907D04D0003686D18033DD5
:10214C005A195778002F04D120000CBC90469946A0
:10215C00F8BD7900C9190339884643445978894632
:10216C0000215970517073683A00210080689847BB
:10217C003368002814D042469A18947059195B5D44
:10218C00002B00D053700F70270049463000FFF72A
:10219C00CBFF390002003000FFF774FF0400D3E7D7
:1021AC00424641465D19AF709A185B5C002B00D01B
:1021BC006B701470E9E7C046F0B557464546DE46ED
:1021CC004E46E0B50D006B0001685B19DF1E040084
:1021DC00C85D83B00192CA1900284CD043001B186B
:1021EC00033BCB185E78B446002E16D1019E002E10
:1021FC003ED0E67B002E04D073009B19CB18033B1A
:10220C005D70E57300282FD10023537003B03CBCE4
:10221C0090469946A246AB46F0BD72006244033A22
:10222C0089184A78904600224A7091465A700100EB
:10223C0032002000FFF726FF43468246002B07D0D2
:10224C005B0021684344033BCB185A78002A16D113
:10225C00424651462000FFF715FF2168019BCA1921
:10226C00002BC6D10028CFD043001B18033BCB1842
:10227C0000219970C8E7019B002BBAD1C4E750002C
:10228C0080180338091848788346484648705870B7
:10229C0041462000FFF7F6FE594680462000FFF726
:1022AC0043FF414602002000FFF7ECFE8046CFE7DB
:1022BC00F0B54E464546DE465746E0B5467B040033
:1022CC0075000068AD19033D83B00191415D421961
:1022DC0000294ED04B005B18033BC3185F78BC46FB
:1022EC00002F18D1019D002D40D0E57B002D04D08E
:1022FC006B005B19C318033B5E70E673002931D188
:10230C00002330005370617303B03CBC9046994677
:10231C00A246AB46F0BD7A006244033A801842787C
:10232C0093460022427091465A7020003A00FFF703
:10233C00A9FE5B468046002B07D05B0021685B44FE
:10234C00033BCB185A78002A17D15A464146200035
:10235C00FFF798FE019B010020684219002BC4D1A5
:10236C000029CDD04B005B18033BC318002098709C
:10237C00C6E7019B002BB8D1C2E750008018033888
:10238C0009184878824648464870587059462000CB
:10239C00FFF778FE53468346002B07D05B0021687D
:1023AC005344033BCB185A78002A06D1594652465F
:1023BC002000FFF767FE8346C7E7500080180338FC
:1023CC00091848464F784870587051462000FFF75E
:1023DC0059FE390081462000FFF7A6FE494602004F
:1023EC002000FFF74FFE8246E0E7C04670B50400C0
:1023FC0000292CD0437B8B422ED005684800401816
:10240C00033828188278002A21D053009B18033BEC
:10241C00EA5CEE188A4202D11BE0002A08D0530075
:10242C009B18033BEB185A788A42F6D142785A70C3
:10243C0000230122837043702000FFF7BDFE617BF7
:10244C0002002000FFF71EFE6073012000E0002058
:10245C0070BD43783370EBE701221900FFF7ACFE37
:10246C0060730120F4E7C04610B50400FEF792FD3E
:10247C0001002000FFF74CF8FF232371BFF35F8F9F
:10248C0010BDC04610B50400FEF784FD010020000D
:10249C00FFF73EF8FF23A380BFF35F8F10BDC0464C
:1024AC0010B504000120FEF781FD034BC3189B00FF
:1024BC002360BFF35F8F10BD40000034F8B50400FB
:1024CC0006200D0000F096FA002845D02B4B2C4925
:1024DC00E3185A4253418022D20394465B42134084
:1024EC00284A63441360284A136018008A68904392
:1024FC00FBD1224B8021E3185A425341234A5B0003
:10250C0049000620995200F075FA2900C00001F02C
:10251C0003FFC30921D140270122260080256262D6
:10252C00A36200232C36AD0135432B60062000F04E
:10253C0061FA3900800001F0EFFE6023E26A53403B
:10254C006E221A4080235B0133431A60104B2363C5
:10255C0010232B600D3BA364F8BD0E4A934203D9A4
:10256C0000230D4F0D4AD8E77F2210400130400860
:10257C009F011A003F180300CFE7C0460080FCBF44
:10258C0000C0004000E0004000F000409005022038
:10259C0001030000FEFF0000C0FF3F00FFFF000032
:1025AC002C4B2D4A70B51A602C4A2D4B2D491A60B4
:1025BC0010008B689843FBD12B4C2C4B9C4209D2BE
:1025CC00013B1D1BAD080135AD002D1908CC9847FA
:1025DC00AC42FBD100F0B0F8254A214B1A60214ADD
:1025EC009368DB018033FBD14022224B224C234DDC
:1025FC009A675A671A67DA66AC4208D223682000D9
:10260C00002B21D00834FFF73DFFAC42F6D31C4C15
:10261C001C4DA168C022280002F034FEA560FEF714
:10262C00ABFCFEF74BFFFFF7A9F9174C174B9C427D
:10263C0009D2013B1D1BAD080135AD002D1908CC8D
:10264C009847A542FBD170BD0834FFF70DFFAC4293
:10265C00D4D3DCE700E00040BFCDFBFEFE7F3C00A6
:10266C0000F0004000C0004060FA002070FA00202A
:10267C00FFFFFF0100F0014058FA002060FA002033
:10268C0000ED00E00000002070FA002078FA002035
:10269C00094A03001068002805D00849C3188B426A
:1026AC0007D81360704706480449C31810608B4262
:1026BC00F7D901204042F5E7100101200000042069
:1026CC005808022000BEFDE710B50C0082B01900BE
:1026DC00002A09D0064B0192009302002300054802
:1026EC0001F084FD00BEFDE7034B1A00F3E7C04682
:1026FC0064E1002074E1002070E100200FB400B50B
:10270C00084883B002F01AFF049B002B07D005A9E0
:10271C001800019101F08AFD034802F00FFF00BE82
:10272C00FDE7C046A4E1002074DD002010B501488F
:10273C00FFF7E4FFB4E1002030B50C2083B000F0CB
:10274C00B3F9FEF711FC00280ED0944B944A1A6092
:10275C005A609A60DA601A615A619A61DA611A6297
:10276C00904A5A6203B030BD8F4CA06700F0F0F96C
:10277C0001228E4B1A60636C012BFCD103228C4B13
:10278C001A60894A936B012BFCD101330121894AD0
:10279C0089480093043300F033F90523874A0093EA
:1027AC000121874800F02CF9864B5A68FF2A02D881
:1027BC00802252005A608022784C7D4B2169120194
:1027CC00804D1A60002905D0606901F0A5FD01302B
:1027DC000138FDD1E0217B4B02201A681140802288
:1027EC0052012A43116019684840032101401160CD
:1027FC0004219A681142FCD08022802192012A4344
:10280C0009011160802252005A606F4B23616F4B9B
:10281C005968FF2900D85A6003226C48634B012188
:10282C001A60020093681942FCD0E02513681D4021
:10283C0080235B0103431D6012684A400321114051
:10284C0019600221614A93681942FCD080238021CF
:10285C009B0103430901196080215D4B49005160C4
:10286C0063615C4B5A68FF2A00D8596080225A4B2E
:10287C00E1691201574D1A60002905D0606901F019
:10288C004BFD01300138FDD1E02252490B681A4052
:10289C0080235B012B431A60802380229B012B43F6
:1028AC0012011A6080223E4B52004A60E3614B4B8E
:1028BC005968FF2900D85A608022494B216A1201BD
:1028CC00464D1A60002905D0606901F025FD0130E4
:1028DC000138FDD1E02241490B681A4080235B018D
:1028EC002B431A60802380229B012B4312011A6018
:1028FC00802380225B004B60294BD2022362394B30
:10290C005968914200D25A608022374B616A120199
:10291C00344D1A60002905D0606901F0FDFC0130CE
:10292C000138FDD1E0222F490B681A4080235B014E
:10293C002B431A60802380229B012B4312011A60C7
:10294C008023DB024B60174B6362284B5A68FF2ACB
:10295C0002D8802252005A608022254BA1691201B4
:10296C00224D1A60002905D0606901F0D5FC0130B8
:10297C000138FDD1E0221D490B681A4080235B0110
:10298C002B431A60802380229B012B4312011A6077
:10299C0080235B004B600E4BA361E3E678000120C3
:1029AC00006CDC021BB70000008000403CB0004013
:1029BC0030B00040002F685900800240008C8647E0
:1029CC0000C0024030800040001BB7003C8000403B
:1029DC00405973075480004054B000406080004060
:1029EC0060B000406C8000406CB0004048800040FB
:1029FC0048B00040014B8000C0587047780001205F
:102A0C00F8B504000C2017001D000E0001F084FC2A
:102A1C004101091A8B01591AC9000918890138009A
:102A2C0001F07AFC069A2B04120313432268002A45
:102A3C0021DB194AA21851424A41802149018C4696
:102A4C0052420A40154962440A6015490A60154908
:102A5C0017008D68AF43FBD1C021221D89011143A2
:102A6C0021222660A0600A602268002AFCDAE3605A
:102A7C0008230B60F8BD3F2221680A40B242D8D12E
:102A8C00A2681205120D8242D3D1EE21E268C9026E
:102A9C000A409A42CDD1EDE70040FDBF00E0004076
:102AAC0000F0004000C000408023024A9B0003431A
:102ABC00D36270470080054010B5140080221B4B78
:102ACC00D2051A6000281AD00123194A1843194B51
:102ADC00DA61194A42401A62596298628022134B99
:102AEC00D2051A601549164A1160E022D2041A6008
:102AFC00002C07D18022134B12061A6010BD0D4B0F
:102B0C00D861EBE780236201121B920012191201AB
:102B1C005B049A4200D30C4A0C4B1A60054B5A606A
:102B2C008022084BD2051A60E8E7C04600B0054089
:102B3C00D3C007B0008005402D3FF84FFCFF0100CB
:102B4C000820014000A00540FFFFFF0018050120F0
:102B5C00AA23064A1B0113602F230549D360054B9A
:102B6C0019605368002BFCDA7047C04600400240E5
:102B7C0000B0FA00006002409A4200D288547047BC
:102B8C007047C046F8B557464E46DE464546E0B55A
:102B9C001F000A9B05009B460D9B0E00914692461A
:102BAC009B0718D10B9B0C9A934214D213000B9ACF
:102BBC00B8469B1A4B444C460F0006001D002200E1
:102BCC004346013439002020B047AC42F7D1AA4625
:102BDC0035003E0047460B9B002B38D09A441C0016
:102BEC00D04653461A1B5B46013C185D31003B0036
:102BFC00A847002CF5D10D9B9B0721D543464A468F
:102C0C009C1A0C9BA3421BD93A009A464F469146FC
:102C1C00E2194B46310020200134A8475445F7D324
:102C2C0043460C99DB1B0133B9460022994203D36E
:102C3C0043464A1E4A44D21A4346904601339844AE
:102C4C0040463CBC90469946A246AB46F8BDD046A1
:102C5C00D1E7C046F0B54F464646D646C0B584B01F
:102C6C0098460EAB1B78129F994694460D9C109B70
:102C7C00119EBA0725D4002E69D19C4200D3C2E024
:102C8C0001223A4092461F2C00D9BBE00C9A551EEB
:102C9C00302201E0202C03D001342A55A342F9D86C
:102CAC005246002A0DD0B4420BD21F2C62D80C9A7B
:102CBC00551E302201E0202C5CD001342A55B44240
:102CCC00F9D1FA0635D57A055DD4002C57D10F9B76
:102CDC00102B00D17CE00F9B022B00D18DE0302318
:102CEC000C9A012413704B46002B27D02D230C9AE1
:102CFC00135501340C9B624600930397434602968E
:102D0C000194FFF73FFF04B01CBC90469946A246C5
:102D1C00F0BDBB0663D4202CECD00C9B1A190134EB
:102D2C0078231370202CE5D030220C9B1B191A70C1
:102D3C000134202CDED04B46002BD7D17B0735D469
:102D4C003B07D7D520230C9A13550134D2E7012227
:102D5C0015003D40AA463A4220D04A46002A2AD1C4
:102D6C000C323A4227D19C429DD21F2C00D88DE7C1
:102D7C00202E19D92024FA06BCD57A0503D4A342F7
:102D8C001BD0A64219D00F9B102BC2D0022BC9D13D
:102D9C00202CAFD00C9B1B19013440E09C4200D37B
:102DAC008FE71F2C00D871E720248AE72B230C9A7D
:102DBC00135501349EE7013ED5E7631E012C00D16B
:102DCC0085E70F9A102A20D0022A25D01C00ABE7E9
:102DDC00BB060DD478230C9A01241370A4E7202C85
:102DEC0000D187E758220C9B1B191A70013499E704
:102DFC0058230C9A0124137096E70C9A6033012423
:102E0C00137091E7202400265BE7023CBA06E9D454
:102E1C000C9A12191C0083E70C9A924653446222B6
:102E2C001A707FE710B5002800D110BD02F034FBFA
:102E3C00FBE7C0460B0010B5002802D049681B68A0
:102E4C00984710BDF0B5DE46574645464E46E0B5B0
:102E5C009BB09B46249B0A909846259B0B910C9209
:102E6C004046424619009A4601F02FFD002800D03A
:102E7C00E8E00122404651467F4B524201F020FDD2
:102E8C00002800D0DEE00122404651467B4B5242E6
:102E9C0001F000FD002800D0D4E0002200234046C1
:102EAC00514601F0F7FC002800D0CAE15346C14658
:102EBC0009938023289ADB001A400E92289A1A4212
:102ECC0001D1062326934C46099B234300D0D9E01D
:102EDC00289B002600271B0500D4AEE100230D9390
:102EEC00269B19000D9B994200DCB0E1C81A431EC9
:102EFC0026938023289ADB001A430023002528926E
:102F0C000D93279B0024AB4200D95C1B0223289A0B
:102F1C001A400E92289A134203D06B426B415B42CB
:102F2C001C400D9B002B07D04846099932003B00F2
:102F3C0001F047FC8146099100220023404651468E
:102F4C0001F0A8FC002805D08020000684460999D1
:102F5C0061440991289A4A4B0A9E13404A460493AD
:102F6C00269B0B990293099B0394009201933000CA
:102F7C005B460C9A884600F0A1F90400002D72D033
:102F8C00289B220098061F23C017984341465B4696
:102F9C006530B0470D9B671CDA179C18DB0F984601
:102FAC006B1E99460025544001E0202D13D00AAA2F
:102FBC0094461F23200063440A2101355E1901F059
:102FCC00ABF93031317020000A2101F0A5F926004F
:102FDC000400092EE9D8052306934B4605930023DC
:102FEC0004930A33039343463A000A9E0B9F0293C1
:102FFC0012AB009339005B4630000195FFF72AFEB7
:10300C000E9B0400002B2ED00C9B279AC51AAA42AB
:10301C0029D93C00814698461700434621005A198D
:10302C0020205B460135B047AF42F6D84C460C9990
:10303C002798631A01330022984200D30AE1013425
:10304C00141910E0289B42460493279B0B99039379
:10305C00269B0A9802935346009201935B460C9A66
:10306C0000F02CF9040020001BB03CBC90469946A3
:10307C00A246AB46F0BDC046FFFFEF7FFFFFEFFF60
:10308C00FFF7FFFF764B099D9C466800400D60449E
:10309C0001F02EFC734A744B01F0B1FB734A744B74
:1030AC0001F086FB2B03734A1B0B1A4306000F001F
:1030BC00714B110048460022099501F070FB6F4AD4
:1030CC006F4B01F09CFB02000B003000390001F04B
:1030DC006FFB01F025FC0D9001F00AFC694A6A4B6C
:1030EC0004000D0001F08BFB0022684B01F060FB2B
:1030FC0001F016FC664A0600664B2000290001F020
:10310C007EFB040030000D000F9601F0F1FB624ACB
:10311C00624B01F074FB02000B002000290001F04F
:10312C003EFB02000B0006000F0001F068FB3200B2
:10313C0004000D003B003000390001F039FB002287
:10314C0010901191564B2000290001F03AFB0022FF
:10315C00544B01F02DFB02000B002000290001F064
:10316C0030FB0022504B01F023FB02000B0020002F
:10317C00290001F026FB0D00802132003B000400E9
:10318C00C905002001F00BFB02000B0020002900F8
:10319C0001F00EFB02000B001098119901F011FBCD
:1031AC000022344B01F004FB404A0F9B94466344CD
:1031BC0000221B0501F023FB06000F0002000B0090
:1031CC004846099901F066FB00280AD00D9B300097
:1031DC00013B39000D930022324B01F0F2FA06004C
:1031EC000F00C6250D99330063318D42AD412899EE
:1031FC006D420435090500D483E63B4300D16FE6EC
:10320C00099C484621002A4A2A4B01F051FB002810
:10321C0008D0002248462100274B01F03BFB002838
:10322C0000D05DE6269B002B00D16AE60E9B5A1E51
:10323C009341269AD31A269363E6002304250D9313
:10324C005FE680231B065344C146099331E60023F5
:10325C0026934EE60A008446013A6244121BEEE6BF
:10326C0001FCFFFFFB799F501344D33FB3C8608B25
:10327C00288AC63F0000F03F0000F83F61436F63AF
:10328C00A787D23F71A379094F930A400000E03F12
:10329C001655B5BBB16B0240EF39FAFE422EE63F34
:1032AC0000002C400000244000001840FF030000E8
:1032BC002D431CEBE2361A3F80842E41F0B54E466E
:1032CC00DE4657464546E0B597B09946209E219F6D
:1032DC00229B8346984607910C923B0032003000AB
:1032EC00390001F0F2FA002800D0C1E101223000CF
:1032FC003900CA4B524201F0CDFA002800D0E0E070
:10330C00012230003900C64B524201F0D9FA002894
:10331C0000D0B6E0002230003900C24B01F0D0FAE8
:10332C00002800D098E0002230003900BE4B01F09C
:10333C00B1FA002800D08FE00022002330003900C1
:10334C0001F0A8FA002800D0B0E000230D93249BD4
:10335C005B0501D40623984608AB9C461722002433
:10336C0030234146624404E0013413550139202CCA
:10337C0001D00929F8D888463000390001F0D0FA7C
:10338C004346DA00A94B05009B181A685B68089243
:10339C00099301F0ADFA02000B003000390001F086
:1033AC00FEF9089A099B01F02AFA0A900B9101F098
:1033BC00DBFA824601F098FA02000B000A980B998E
:1033CC0001F0EDF900229A4B0A900B9101F078FA7A
:1033DC00002800D1C0E001239C46E244504601F095
:1033EC0083FA02000B000898099901F059FA002899
:1033FC0002D000239A4601354346002B69D008AB16
:10340C0017269C4608956644554614E001235B42FA
:10341C0043440A2128009A4600F07EFF01343031E3
:10342C003719397028000A2100F076FF092D00D8D1
:10343C00D5E0D0460500202CE8D10323249A134074
:10344C00012B00D100E10EAB9846249B0194039311
:10345C00239B029343461EE0249B58460493239BD4
:10346C0000960197039343460C9A029307994B4697
:10347C00FFF7E8FC17B03CBC90469946A246AB4619
:10348C00F0BD249B5B070ED403226A4B2499019256
:10349C00039123990291009358464B460C9A079935
:1034AC00FFF770FBE6E70422634BEFE73B003200CB
:1034BC000020002101F073F9012306000F000D9389
:1034CC0045E7249B0393239B0293042301935B4BBB
:1034DC00E1E7280001F00CFA02000B003000390083
:1034EC0001F05DF9524B002206000F0001F0D2F9F9
:1034FC000EAB984600280AD10022300039004C4B04
:10350C0001F0DEF9002802D1EB0700D50135202CA3
:10351C0032D008AA94461723280063440A210134A8
:10352C001E1900F0D1FE3031280031700A2100F054
:10353C00CBFE051EEBD10323249A1340012B00D1A3
:10354C0091E01F2C00D980E70D9B002B3BD02D2345
:10355C0042461355013478E700220A980B99344BF4
:10356C0001F098F9002800D046E75346002B67D1AC
:10357C0001239C46E2443FE70323249A1340012B8A
:10358C0000D062E7239B002B00D15EE70D9B002B44
:10359C0003D1249A0C33134202D0239B013B239377
:1035AC00239B9C42CDD208AB9C461722302362440D
:1035BC001F2C06D82399013413558C42C1D0202CD2
:1035CC00F8D1202441E7249B5B0721D4249B1B07C3
:1035DC0000D43AE7202342461355013435E75746C9
:1035EC00089D202C37D0220030214046002F08D0D7
:1035FC000132B154202A43D0D3431B191B18002B82
:10360C00F6D10EAB98462E234146541C8B547EE7C4
:10361C002B2342461355013417E7C046FFFFEFFF3B
:10362C00FFFFEF7F65CDCD4165CDCDC1B8E3002067
:10363C000000E03FC0E10020C4E10020D0E1002008
:10364C00DB0700D4D8E693E7239B002B00D1FAE6E6
:10365C000EAB98469AE70323249A1340012B00D013
:10366C00F1E60EAB9846239B002B00D169E78DE762
:10367C00249B0393239B029303230193064B0AE79A
:10368C000323249A20241340012B00D0DBE6239B38
:10369C002024002BDCD1D6E6CCE10020F0B5DE46B0
:1036AC004E4657464546E0B59FB01C00289B9346B6
:1036BC000993CF4ACF4B894608901A60002900D154
:1036CC0016E2002320789A46002800D118E2260042
:1036DC001D004C460AE02A006F1C5B46089D210029
:1036EC00A8473D000136307800287AD02528F2D141
:1036FC0010239A46083B9946043B9846023B00210E
:10370C009C46721C107816000300203BDBB2102B79
:10371C0003D8B94F9B00FB589F460300303B092B45
:10372C003CD900230A932A2800D171E00023984643
:10373C002E2847D00300683BDBB2122B1FD8AF4AB0
:10374C009B00D3589F46012301321943DAE76346A5
:10375C0001321943D6E7434601321943D2E75346A7
:10376C0001321943CEE74B4601321943CAE7707850
:10377C006C2800D1BFE280235B00194301360300A3
:10378C00253BDBB2532BA6D89D4A9B00D3589F46B2
:10379C0080235B00707819430136F0E700270300A3
:1037AC00B800C01901364000C018337830381A0000
:1037BC00303A0700092AF3D90A90180000239846DA
:1037CC002E28B7D180237078DB0019430300303BDF
:1037DC00721C092B00D895E12A2800D1A6E116000D
:1037EC00A8E7A146AA462C00D34503D801235B4287
:1037FC005B449A465B46524649460020089DA847C2
:10380C0020001FB03CBC90469946A246AB46F0BD8A
:10381C00099B40CB0A96002E03DB50780993561C6B
:10382C0084E72838014370420A9009935078561C5B
:10383C007CE7782800D1D4E1582800D168E26F28C1
:10384C0000D152E3622800D1D8E110230A009A4338
:10385C000B92692801D000F0A2FC0A230C934B05B3
:10386C0000D4D5E101230B9A9A430B92692800D11D
:10387C00CEE1642800D1CBE10B9A802311009B0090
:10388C0019408A461A4200D032E3802311005B00B3
:10389C00194089461A4201D000F002FC13005B0665
:1038AC0000D510E30B9B1B0601D400F06EFC099BAA
:1038BC0004CB1204120C924609935346002B00D0F1
:1038CC0064E30B9A1033110099430B91520500D409
:1038DC005CE3002399460B9B06930A9B0593434696
:1038EC0004930C9B03930023DEE27078682800D1CC
:1038FC0007E280230136194341E780239B0070784F
:10390C00194301363BE7462800D174E10722099B95
:10391C000491073393430A9A190003924246029288
:10392C000CC908980092019309912A005B4621006A
:10393C00FFF7C4FC01360500D5E6099B1A0008CA3E
:10394C009146002B00D105E1212211438A460EA895
:10395C0084461F216144099500220F27A4460D00BF
:10396C0002E0202A0CD00B003C001C402000373019
:10397C00092C00D807380132A85419090F2BF0D89C
:10398C006446099DF0E08B0700D4D1E1099B2A0025
:10399C0099466B1C98464B4601CB21009946089FD3
:1039AC005B46C0B2B8470A9B9C466544012B00D8C5
:1039BC0090E2B2465E464746A846089D3A00330060
:1039CC00013721002020A8474745F7D1B3464B4685
:1039DC0056463D000993013685E62A006F1C5B466E
:1039EC00089D21002520A84701363D007BE6C046F6
:1039FC005D34002014050120D8E100201CE20020D9
:103A0C0068E20020099B04CB994643460992002B9F
:103A1C0000D097E013789C46002B00D1B3E302232F
:103A2C005B425A1C099B924618000A9F0B92504409
:103A3C0002E0834200D169E15A780133002AF8D1BF
:103A4C00099A0A979B1A0B9380230A00DB001A40F1
:103A5C000C92194204D00B9B434501D943460B935E
:103A6C0002231A000A400D920B4200D184E16046F9
:103A7C00002823D00C9B002B00D124E1A844C24683
:103A8C00099B57465B1B9846089BB2462A002600AA
:103A9C005C469B4609E023003100551CD847434641
:103AAC00585D002800D13FE12A009742F3D1A3468C
:103ABC003D00340056460D9B002B69D00B9B0A9998
:103ACC00A846994264D98C466544ED1A089B474632
:103ADC009A46B04626005C463A0023000137310076
:103AEC002020D047AF42F7D1A346340046464FE0E2
:103AFC00D24B2078089300239A46002800D0E6E5A4
:103B0C00002471E6434606000A9F9800C018013253
:103B1C00400080191678030030003038303B0928FB
:103B2C00F3D93000984616000A9703E6099B023633
:103B3C0004CB9046D2434046D2171040804609939E
:103B4C003078F7E513789C46002B00D11AE34346F6
:103B5C00013B66E710220800904311321043824665
:103B6C000022490500D4F2E6534606930823059338
:103B7C0043460493102303930023029316AB019244
:103B8C0000932A005B4621000898FFF763F80500B4
:103B9C004B4601360993A6E5202302009A43472A97
:103BAC0004D180231B01194302239843452801D1DA
:103BBC00202319430722099B0491073393430A9A44
:103BCC0019000392424602920CC908980092019384
:103BDC0009912A005B462100FFF734F901360500F4
:103BEC0081E510230C930C230A009A430B924B058E
:103BFC0000D43BE636E62023194387E602230C93D8
:103C0C000B910B996428EED10B9B5B0500D529E633
:103C1C000B9A802311009B0019408A461A4200D04F
:103C2C00CEE0802311005B00194089461A4200D077
:103C3C00DBE113005B0600D51DE10B9B09991B060C
:103C4C0000D499E208C91BB2D8171A18424092B294
:103C5C0009919246DA0F1292002B09D1802310227F
:103C6C000B99DB000B4091430B91002B00D012E120
:103C7C000B9A6123920600D541230EA91F228C4674
:103C8C00DBB262440A3B57461395A2464D460C9C48
:103C9C00B1460D9316000AE03033DBB20135735593
:103CAC00A74200D21CE1202D00D119E10700210010
:103CBC00380000F031FBCBB20929EDD90D9A9446AE
:103CCC006344DBB2EAE7099B5F465B1B98460A9BA1
:103CDC00B3469A462600089C2A003B003100A047B8
:103CEC0043460135585D0028F6D1534634000A93FB
:103CFC005E46BB46DFE6C0239B00B0781943023614
:103D0C003DE5C023B0781943023638E50A979BE6A7
:103D1C000C230A009A4314331A4310230B920C936E
:103D2C004B0500D4A8E59DE5A34634005646C2E6F3
:103D3C000A9A012A00D82EE26B1E9F18089BB046E7
:103D4C00994626005C462A002300013531002020CC
:103D5C00C847BD42F7D1A34634004646099B3A00FA
:103D6C0001CB210098467D1C5B46089FC0B2B8472A
:103D7C00434601360993B6E40B9A0A98531C9042B9
:103D8C0000D80AE243199B1A1F00089BB246260072
:103D9C005C469B462A002300013531002020D84781
:103DAC00BD42F7D10A9BA34601330B93099B340008
:103DBC001B7856469C466046002800D05AE6E7E63B
:103DCC000722099B07339343013294469C44624675
:103DDC005F6809921A68FB17109311931098119948
:103DEC00030053400E930B007B400F9394460E9AA6
:103DFC000F9B121A8B410E920F93FB0F624612937C
:103E0C0000233A439A463DD00B9A6123920600D583
:103E1C0041230022DBB20EA90A3B8C4691460D933E
:103E2C0043461F326244139515964D460E9E0F9FC6
:103E3C00A14690460C9C14930FE0C04641290020EB
:103E4C003032D2B2434601355A55BA4500D17CE1E5
:103E5C00202D00D17CE106000F0022000023300051
:103E6C00390000F09BFAD2B2092AE9D90D9B9C4685
:103E7C006244D2B2E6E7FF23099904C913401A0041
:103E8C000991E6E60B9A1033110099430B915205F8
:103E9C00BAD5002399460B9B06930A9B0593434680
:103EAC0004930C9B0393129B02934B46019316AB0A
:103EBC002A00009321005B460898FEF7CBFE0136E2
:103ECC000500FFF710FCFF22099B02CB11408A462C
:103EDC000993F2E44B46454609930136FFF703FC80
:103EEC004E465446A946139DD5E708230C9387E606
:103EFC000722099B07339343013294469C44624644
:103F0C0009921A685B6810009A46130052461343D4
:103F1C0007D10B9A1033110099430B91520500D520
:103F2C00D7E40B9A6123920600D541230022DBB221
:103F3C000EA90A3B8C4691460D9343461F326244B0
:103F4C0057461295A2464D460400B14690460C9E2B
:103F5C0013930DE03032D2B2434601355A5500234B
:103F6C00BB4200D1FDE0202D00D1FDE004000F008C
:103F7C00320000232000390000F010FAD2B2092AD6
:103F8C00E8D90D9B9C466244D2B2E5E70B9A6123BB
:103F9C00920600D54123DBB20EA90A3B1F228C46A8
:103FAC000D93230062445446129517004D469A46D1
:103FBC00B1460C9E08E03033DBB201357B55B44280
:103FCC000ED3202D0CD004003100200000F0A4F9F9
:103FDC00CBB20929EFD90D9A94466344DBB2ECE7D6
:103FEC004E465446A946129D75E4099B1A0008CA10
:103FFC00D91713925A184A409146DA0F1292002B95
:10400C0008D1802310220B99DB000B4091430B91BC
:10401C00002B2BD10B9A6123920600D541230EAABB
:10402C001F279446DBB20A3B0D956744554609930E
:10403C00A2464C46B1460C9E08E03033DBB201354B
:10404C007B55B4420ED3202D0CD00400310020003F
:10405C0000F062F9CBB20929EFD9099A944663446E
:10406C00DBB2ECE74E465446AA460D9D0B9B2A004C
:10407C0006930A9B21000593434604930C9B0898D6
:10408C000393129B013602935346019316AB009394
:10409C005B46FEF7DFFD139B05000993FFF723FB3F
:1040AC00099B04CB91461293002A08D1802310223D
:1040BC000B99DB000B4091430B91002B2BD10B9AEE
:1040CC006123920600D541230EAA1F279446DBB22A
:1040DC000A3B0D95674455460993A2464C46B1469A
:1040EC000C9E08E03033DBB201357B55B4420ED365
:1040FC00202D0CD004003100200000F00DF9CBB2C3
:10410C000929EFD9099A94466344DBB2ECE74E4691
:10411C005446AA460D9D0B9B2A0006930A9B210030
:10412C000593434604930C9B089803930023029336
:10413C005346019316AB00935B46FEF78BFD129B27
:10414C00050009930136FFF7CEFAB44200D87FE69A
:10415C00149B4C460E960F97A9469846159E139D98
:10416C0099E6A64200D8FEE6139B4E469846A94611
:10417C005446129DFFF7AFFB08C9D8171A184240D6
:10418C00099166E500230B935EE4099B04CB9246F0
:10419C000993FFF792FB2F00E0E50B930BE6063B30
:1041AC000C932EE50EB4012210B585B007AC08CCEB
:1041BC0001000094524204480394FFF76FFA05B0D3
:1041CC0010BC08BC03B018473929002000B585B0D5
:1041DC000391012102900093034813004A4202A963
:1041EC00FFF75CFA05B000BDF52B00200FB410B53D
:1041FC000C4984B006AA08CA0C680392002C0BD098
:10420C00009201220848524202A9A047012004B0A2
:10421C0010BC08BC04B01847180001F08FF900203E
:10422C00F5E7C04614050120E52B002010B5094A1E
:10423C000300146884B0002C08D0012200910648B9
:10424C00524203A9A047012004B010BD01F076F939
:10425C000020F9E714050120E52B0020014804217A
:10426C00014B184730F000204D400020142310B5AE
:10427C000100188804331B88984710BD162310B50D
:10428C000100188802331B88984710BDF0B5C6464C
:10429C0000B5002916D014230400012598461827D0
:1042AC00890046184346216818883B88984701C402
:1042BC00431E984140420540A642F3D1280004BC5D
:1042CC009046F0BD0125F9E7124A936F9B0815D271
:1042DC009066D166002905D0FFE7FFE7FFE7516F35
:1042EC00106F704704B580210906C2175140002891
:1042FC0000D0C84304F026F8002104BDF0B5146EBC
:10430C00556E576F166FFFF7E3FF146655665767C8
:10431C001667F0BD000000D0114A936F9B0813D2B2
:10432C0010665166002905D0FFE7FFE7FFE7516FE4
:10433C00106F704704B5002801D00020C04304F072
:10434C0001F8002104BDC046F0B5146E556E576FD0
:10435C00166FFFF7E5FF1466556657671667F0BDD5
:10436C00000000D094464E4A926F9208624601D2E9
:10437C0030E0C046F0B54A4EB56F6D08FCD3346ED4
:10438C00756E776F366F00F025F89446444A1466C4
:10439C005566576716676246F0BDC0469446404A5C
:1043AC00926F9208624601D258E0C046F0B53C4E7E
:1043BC00B56F6D08FCD3346E756E776F366F00F089
:1043CC004DF89446364A146655665767166762462A
:1043DC00F0BDC046002B24DB11D000293EDA00B51D
:1043EC00C943404200D1013100F038F8C943404282
:1043FC0000D10131DB43524200D1013300BD002A10
:10440C00EBD1002801D1002905D00020C90FC90724
:10441C0001D1C043410800B503F094FF00220023F2
:10442C0000BD00B500290ADBDB43524200D1013349
:10443C0000F014F8C943404200D1013100BDC9431A
:10444C00404200D10131DB43524200D1013300F034
:10445C0005F8DB43524200D1013300BD002923D1C2
:10446C00002B18D1002A0CD0BC460D4F38667A664A
:10447C0000210023FFE7FFE7FFE77A6F386F6746FD
:10448C007047002801D00748010000B503F05AFF1F
:10449C000022002300BD02000B0000200021704709
:1044AC00000000D0FFFFFFFF002B00D0BFE0130C7B
:1044BC0028D1002AE7D080B4114F39667A66FFE71D
:1044CC00FFE730B4040C7B6F396F1B0423433B664E
:1044DC007A66FFE7FFE7FFE7C04684B27B6F3D6F6C
:1044EC001B0423433B667A66FFE7FFE7C0460023C5
:1044FC002C042D0C7A6F386F00196941B0BC7047D1
:10450C00000000D0F0B594460025140E01D1120223
:10451C000835140F01D112010435940F01D192000A
:10452C000235D40F01D152000135D40B0134254F83
:10453C007C66254C3C660E0C93B2FFE7FFE7FFE769
:10454C003C6F6643360C7703BE467343DF0B5B044C
:10455C00C01AB941130C7343DB18C91ACE08664351
:10456C00360CB64493B273431F0F1B01C01AB941EA
:10457C00130C73431F0B1B05C01AB941860D8F0218
:10458C003E436643360C092D24DB520A7243801AD3
:10459C007703460A6643360C16235B1BDE40DF406E
:1045AC00BF1964466643821B70460435063301000E
:1045BC00D940A840C01900D30131A24206D2002331
:1045CC00F0BD0000000000D0FFFFFFFF121B013008
:1045DC00F3D3F1E709277F1BFE406446A2B2724376
:1045EC00801A00D20139220C7243130C1204821A65
:1045FC0099410B007046043513370100F940A8406F
:10460C00801900D30131002B02D1A2420AD2F0BD95
:10461C00013000D30131121BFAD2013BF8D1A24276
:10462C0000D2F0BD013000D30131121BF7E7F0B519
:10463C001C0C00D080E00CB400251C0A04D11B0219
:10464C00160E3343120208351C0B04D11B01160F36
:10465C003343120104359C0B04D19B00960F33435A
:10466C0092000235DC0B02D192185B4101351C0023
:10467C00971864410134464F7C66464C3C660E0CE0
:10468C00FFE7FFE7FFE7C0463C6F6643360C770356
:10469C00BE4697B27743C01B00D20139C01B00D273
:1046AC0001399FB27743C91BC91B170C77437E0492
:1046BC00FF0B801BB941CE086643360C0C2D33DB47
:1046CC00B644120B1F053A431B0B97B27743C01B22
:1046DC0000D201399FB27743C91B170C77433E04B4
:1046EC003F0C801BB941860D8F023E436643292740
:1046FC007F1BFE400C3D7746AF40BF1930BCA2B2C9
:10470C00ABB272437343801A9941220C7243130C5F
:10471C001204801A994102000B000137001BA941B9
:10472C00F9D2781E0021F0BD0C277F1BFE40774686
:10473C007F0BAF40FF19E0E700245D1C07D0144F3E
:10474C007D663966FFE7FFE7FFE7FFE73C6F95B251
:10475C009EB265436643401BB141150C1E0C65436C
:10476C00664336042F0C3E432D04401BB141994245
:10477C0004D202000B0020000021F0BD01D19042B8
:10478C00F7D3801A994101349942F2D3F6E700002D
:10479C00000000D0FFFFFFFF48404140484018B4E4
:1047AC001B4B5B68FC46019308BD04DFBB48002033
:1047BC0018B4174B1B68FC46019308BD00DFC548B5
:1047CC0000209446134A926F920809D2624618B49C
:1047DC000F4BDB68FC46019308BD0CDF7D4B0020C2
:1047EC000C4AF0B5146E556E576F166F6246FFF794
:1047FC00EEFF084A1466556657671667F0BD18B485
:10480C00034B9B68FC46019308BD08DF214A00203E
:10481C0094050220000000D0FFB5504042405040AB
:10482C0059404B40594000E0FFB5154F4C00640D0A
:10483C0003D0BC4204D10C0314D80020090D090587
:10484C005C00640D03D0BC4204D11C030AD80022C6
:10485C001B0D1B0501264B4009D44B4003D58B4245
:10486C0000D18242FFBD9942FCD19042FFBD0B4367
:10487C00DB1803431343F5D0C9434918FFBD0000AF
:10488C00FF07000000B5FFF7CFFF01D0002000BDEF
:10489C00012000BD00B5FFF7C7FF804100BDC04639
:1048AC0000B5FFF7C1FF01D9002000BD012000BDFC
:1048BC0000B5FFF7B1FF01D9002000BD012000BDFC
:1048CC0000B5FFF7A9FF804100BD012040054A005B
:1048DC00121804D85A00121801D800207047012071
:1048EC0070470020704700000021002805D1704758
:1048FC00C1174840401AFAD0C90713B5064B1B68BC
:10490C0098470CBC441CA2401005120B0349091B10
:10491C0009051943114310BD380501201F0400007F
:10492C0010B54C00620D8023D218DB00D21A5B0547
:10493C007E2A10DD9E3A13DACC1709034908194375
:10494C005242D140640001341532202A05DAD0409D
:10495C000843604310BD002010BD0846604310BDE5
:10496C00C80FC018013810BD18B4044B5B6AFC4664
:10497C00019308BD24DF2D4D00200000940502207A
:10498C0018B4044BDB6DFC46019308BD5CDF394E5B
:10499C000020000094050220C94211D300B5490043
:1049AC004908002200F018F8002904D400224042E3
:1049BC008A41114600BD80210906002000BD00007F
:1049CC0018B4044BDB6EFC46019308BD6CDF3B4D09
:1049DC00002000009405022018B4044B9B6FFC4689
:1049EC00019308BD78DF574D00200000940502208C
:1049FC0018B4044BDB6FFC46019308BD7CDFC54D3E
:104A0C000020000094050220132370B51D78012DA1
:104A1C0015D010DD2748FFF731FC274C0100802210
:104A2C00200000F02FFC022D06D02448FFF71EFCBE
:104A3C00234B186070BD204C224AA264F5E72E006F
:104A4C001D4C204AA3085B421E401D422FD0330050
:104A5C0022602020B1006118801B0A604A608A60C5
:104A6C00CA600A614A618A61CA610A624A628A62E0
:104A7C00CA620A634A638A63CA630A644A648A64C0
:104A8C00CA640A654A658A65CA650A664A668A66A0
:104A9C00CA660A674A674008102803D18A67CA6742
:104AAC00A264C2E71E339B00E250A264BDE7002360
:104ABC00CFE7C04653440000940502204C3300005D
:104ACC00380501208948002007B5604601880A0A8C
:104ADC000230DF2AFAD1C9B2820804D30288408896
:104AEC000004104300E00068014A5050039007BDD9
:104AFC00940502200FB403BC0CBCF0B50124E407F0
:104B0C00634000E0F0B50C0DCF0F661E3605891B17
:104B1C00640503D3C943404200D30131640D03D073
:104B2C00661CF60A07D0E41B00207F00791C89075D
:104B3C008912803C24031D0DDF0F6E1E36059B1B56
:104B4C006D0503D3DB43524200D301336D0D03D00B
:104B5C006E1CF60A07D0ED1B00227F007B1C9B0706
:104B6C009B12803D2D032F1B661B58D4A446202E70
:104B7C0046DA20371400BC401D00BD40F2403341E2
:104B8C002A4380185941CB0F05D0C943C04300229A
:104B9C0064425041514162464D0D28D10D0D07D153
:104BAC0000281FD0241940414941013A0D0DF9D07C
:104BBC00640006D3013000D30131002C01D1400830
:104BCC004000013A0BD4941CE40A04D112051144A0
:104BDC00DB071944F0BDD907204B194300E0D90776
:104BEC000020F0BD0029DDD1002CDBD1F0BD01325D
:104BFC00C6074008CD0728434908002EE1D0D9E765
:104C0C003C2E29DA203E40371400BC4000D0012451
:104C1C00F24014431A00BB401C43D317ACE7AC461C
:104C2C00202F08DA20360400B4400D00B540F840BF
:104C3C0039412843A5E73C2F0CDA203F40360400CD
:104C4C00B44000D00124F84004430800B1400C43A8
:104C5C00C117EAE710001900002494E70000F07F68
:104C6C00F0B50C0D661E3605891BE60A6405640D4D
:104C7C0002D0651CED0A04D0002001210905803CFE
:104C8C002403A4461C0D671E3F05DB1BE70A6405C5
:104C9C00640D02D0651CED0A04D0002201231B0513
:104CAC00803C24037740644497B484B296B2744336
:104CBC00070C7E43150C6F4380B26843361802D341
:104CCC00012000043F183004350C00197D41844646
:104CDC0088B29AB250430C0C62431F0C7C438EB2C8
:104CEC007E43921902D301263604A4191604170C1C
:104CFC003618674101BC81B29AB25143040C62432D
:104D0C001B0C5C4380B25843121802D301200004E0
:104D1C0024181004130C401863412D185E41002018
:104D2C00474106BC88B293B258430C0C6343120C37
:104D3C00544389B251435B1802D30121090464180E
:104D4C0019041A0C091862416D185641002047418C
:104D5C0018BCF902720D1143F0026A0D1043ED02FA
:104D6C000A0D03D16D1940414941013B124E9B1B69
:104D7C007600B3420ED26D0007D30130002671418C
:104D8C006646354301D1400840001B05C918E407AD
:104D9C002144F0BD0BDA013306D1013004D10131CD
:104DAC004F0D01D04908F2E7E1070020F0BD0136B4
:104DBC0031050020EBE70000FF030000F0B51C0DEF
:104DCC00671E3F05DB1BE70A6405640D02D0661CF9
:104DDC00F60A04D0002201231B05803C2403D025B5
:104DEC002D060026F6432E661E096E66CE0FF619AA
:104DFC00B44649004F0D02D07E1CF60A03D00020A9
:104E0C000021403F3F033E1BB600B444013F7F05E9
:104E1C00C91B49082E6F013676089C02950D254357
:104E2C007543ED137543AD1301356D10F603761B09
:104E3C000CB4CC02450D2C43A2B2B3B25A43270C8E
:104E4C007B43350C6F43A4B26C431B1902D3012472
:104E5C0024043F191C041D0CA4187D4124196D4118
:104E6C00009A91B2ACB26143170C7C432B0C5F439C
:104E7C0092B25A43A41802D301221204BF1822047E
:104E8C00230C52187B41019C6C431B19520ED90107
:104E9C000A434401A01A81B2B2B2514303145A43DB
:104EAC00360C734387B27743D617D21900277E414D
:104EBC0036049B191704160C7F185E417316ED18F7
:104ECC00F301002680337541A90F06D16400690AED
:104EDC00E8055B0A184309D22FE00422944480337E
:104EEC007541A90AA8059B0A184326D3404149419C
:104EFC002404009A019B0D005543641B4343E41AA0
:104F0C0095B286B27543170C7E43030C5F4392B285
:104F1C005A43B61802D301221204BF183204330CC0
:104F2C0052197B4152429C41002C02D40022013088
:104F3C0051414008CA071043490802B06246D707DE
:104F4C009210084BD218084B9A4203D212058918BA
:104F5C00C919F0BD0020002A01DC3900F0BD013375
:104F6C001905F5E7FD030000FE070000002200B55F
:104F7C00203200F010F8080000BD002200B500F04F
:104F8C000CF8CA179A4200D100BDD8430121C907B9
:104F9C00414000BD00220B150AD410B5944600F018
:104FAC00A7F81414013400DA0021CB17144C204755
:104FBC000020002170476244343A0CD40C2A07DAE2
:104FCC0004009140904052422032D440214310BD05
:104FDC00D843D94310BD203207D40C4694405242DA
:104FEC0020321141D040204310BD0800C917203297
:104FFC0003D452422032104110BD1800190010BDCC
:10500C00774D00204A00520D144BD21A13DDFF2AA3
:10501C001EDAD205CB0FDB071A43C300400F09037E
:10502C00490A084310435B0001D301D0013070479B
:10503C004308FBD2704702D0C80FC00770470A0361
:10504C0012130132F8D1420F072AF5D1012200E0E8
:10505C00FF22C80F00028018C005704780030000B3
:10506C0000210A00002104E000210A00C11704E01D
:10507C000022002306E0C0460022CB1758405940BE
:10508C00C01A994130B5184CA21A002903D101005D
:10509C0010D00020203A4C1512D104D2013A00183D
:1050AC0049414C0DFAD3114CA24204D21205891875
:1050BC00DB07C91830BDD243520D00200021F5E7A3
:1050CC0003D4013A00184941FBD50B324405C00A00
:1050DC004D052843C90A640003D000246041614196
:1050EC00E1E7E0D34408F8E732040000FE070000D3
:1050FC000A0DCC0F531E1B05C91A520503D3C94305
:10510C00404200D30131520D03D0531CDB0A07D0AF
:10511C00121B00206400611C89078912803A12035B
:10512C00014BD21A70470000FF0300005143434368
:10513C00C9188C46110C83B24B4310B4040C614358
:10514C0092B280B2504362431C041B0C001910BC79
:10515C0059411304120CC0185141614470470000AE
:10516C0007B548404140484001E0C04607B5420001
:10517C00120E03D0FF2A03D1420218D8C00DC0056D
:10518C004A00120E03D0FF2A03D14A020FD8C90DD0
:10519C00C9050122414005D4414001D5814207BDDA
:1051AC00884207BD0143491801D0C043001807BD10
:1051BC0000B5FFF7DBFF01D9002000BD012000BDC9
:1051CC0001231B064200D21804D84A00D21801D879
:1051DC000020704701207047132310B512481C782B
:1051EC00FFF74CF80100012C0AD003DD80220F4898
:1051FC0000F048F80E48FFF739F80E4B186010BD58
:10520C000A4C5422200000F03DF80B4B6365A3655B
:10521C00E36523666366A366E36623676367A36738
:10522C00E3672362E361E5E753460000940602203E
:10523C004C33000038050120FD4F002007B56046B7
:10524C0001880A0A0230DF2AFAD1C9B2820804D3D3
:10525C00028840880004104300E00068014A505066
:10526C00039007BD9406022001480421014B184706
:10527C0040F000204D400020014B1B6818470000F7
:10528C0040F00020014B5B681847000040F0002004
:10529C00030010B508001B681100984710BDC046EC
:1052AC00F8B54746CE4680B5437C07000D00160086
:1052BC00002B37D000240020002A1EDD4B1E984600
:1052CC001B4B9946002C2BD043461B5D0D3B5A4281
:1052DC005341DBB22A5D0A2A13D00134A642F1DC19
:1052EC00864203DD311A3B6828189847AD19013DF9
:1052FC002B780D3B5A4253413B740CBC904699465B
:10530C00F8BD002BE9D1A04203DA211A3B6828181A
:10531C009847484602213B68013498472000DDE756
:10532C003B7CD7E70368110028009847E5E7C046A7
:10533C0080E40020F0B5C6460C000968060000B5F4
:10534C00802906D04B1C23606418267104BC90463F
:10535C00F0BD0F4B1D68002D16D0231D98460D4F28
:10536C0002E0ED68002D0FD02B68002BF9D03B68C4
:10537C00002B01D0AB42F4D1280041462268FFF744
:10538C008FFFED68002DEFD101230021DBE7C04634
:10539C00080101200C010120F0B557464E46454648
:1053AC00DE461C00D023E0B51B061F68354B83B0CE
:1053BC0006000D00180001A991469A4608F05CFB06
:1053CC008046002808D1019B7FB29F4204D05046F2
:1053DC0008F02EFB012398466B1C03D1300003F020
:1053EC00AFFC0500002C2AD1274F284B1C68002C41
:1053FC0018D04B46002B24D1254B994602E0E4688B
:10540C00002C0FD02368002BF9D04B461B68002BC7
:10541C0001D0A342F3D120002A003100B847E46840
:10542C00002CEFD14346002B28D1681E8541E8B2F1
:10543C0003B03CBC90469946A246AB46F0BD154F16
:10544C00D3E7134B99460A239B4602E0E468002CF1
:10545C00E8D02368002BF9D04B461B68002B01D0F9
:10546C00A342F3D12A0031002000B8475A466B46BC
:10547C0020001A7101A90122B847E7E7504608F04D
:10548C006BFBD2E758FA0020615000200801012084
:10549C000C01012051500020F0B54746CE4680B596
:1054AC0083B06B46DF1CD02338701B061C68204B66
:1054BC00060001A91800984608F0DEFA051E22D055
:1054CC001C4B1C68002C2AD01B4B994602E0E4684C
:1054DC00002C10D02368002BF9D04B461B68002BF6
:1054EC0001D0A342F3D1200001223900FFF7D8FEEE
:1054FC00E468002CEED1002D11D1300003B00CBCAF
:10550C0090469946F0BD019B64B29C420BD040463C
:10551C0008F08EFA074B01251C68002CD4D14046AC
:10552C0008F01AFBE9E7034B1C68002CCCD1E4E72C
:10553C0058FA0020080101200C01012070B504006C
:10554C0003F0FEFB00230100050001222000FFF701
:10555C0023FF084B1C68002C06D06368002B05D079
:10556C009847E468002CF8D1280070BDE468002C42
:10557C00F3D1F9E708010120F0B5CE46474680B5D6
:10558C000D00160083B000282CD11C4B1C4F1A6840
:10559C005B68019200931B4B99461B4B98464B46FC
:1055AC001C68002C03D115E0E468002C12D0434693
:1055BC001B68002B01D0A342F6D1A368002BF3D0BB
:1055CC003100280098470028EEDD03B00CBC904653
:1055DC009946F0BD7B6A009A9A4209D8BA6A019939
:1055EC008A4202D301204042EFE7009A9A42F9D155
:1055FC0001200021FCF734FCD1E7C04638E1002043
:10560C0000400540080101200C010120F0B54F4677
:10561C00D6464646C0B501380F00150082B00128A9
:10562C0041D8D0231B061C68204B01A918009946B1
:10563C0008F022FA061E07D1019B64B29C4203D0EB
:10564C00484608F0F5F90136A8466B1C03D1380022
:10565C0003F076FB8046164B1C68002C16D0154BBD
:10566C009A4602E0E468002C10D02368002BF9D095
:10567C0053461B68002B01D09C42F3D120004246BC
:10568C003900FFF70DFEE468002CEED1002E06D198
:10569C00280002B01CBC90469946A246F0BD484674
:1056AC0008F05AFAF4E701256D42F1E758FA0020A8
:1056BC00080101200C0101200A4A1368002B05D1B6
:1056CC000CE01A00DB680C32002B07D09842F8D1A2
:1056DC00002902D1C3681360C16070470029FCD057
:1056EC001060FAE708010120F0B54746CE46D023FA
:1056FC0080B51B061D682E4BA5B007000C001800CA
:10570C0003A9984608F0B8F9061E07D1039B6DB2A1
:10571C009D4203D0404608F08BF9013684220021CB
:10572C0003A8FFF7A9FD23003A00224803A9FEF7BE
:10573C004DFD039B0700002B14D11F4B1C68002C44
:10574C0006D06368002B0BD09847E468002CF8D186
:10575C00002E27D1380025B00CBC90469946F0BDE0
:10576C00E468ECE7144B1D689946002D1ED0134CD1
:10577C0002E0ED68002D11D02B68002BF9D02368C6
:10578C00002B01D0AB42F4D1039B28001A0004A9D2
:10579C000193FFF785FDED68002DEDD14B46039588
:1057AC001C68CCE7404608F0D7F9D3E70395CFE760
:1057BC0058FA0020F5500020080101200C010120AE
:1057CC000FB400B583B004A901C90191FFF78CFF98
:1057DC0003B008BC04B0184710B500F097F800F0FF
:1057EC00F9F910BDF0B5CE46474680B583B006003A
:1057FC00FCF72CFB340002000B000025A4185D41C3
:10580C00A94235D832D02F001C4B99461C4B9846D8
:10581C004B461E68002E03D117E0F668002E14D0FC
:10582C0043461B68002B01D0B342F6D1B368002B62
:10583C00F3D0012101A898470028EEDD6B461879BA
:10584C0003B00CBC90469946F0BD0E4B5A6ABA4256
:10585C0007D39B6AA34201D2BA4202D00120404234
:10586C00EEE701200021FCF7FBFAD1E7A042CAD9F0
:10587C00012701246442E5177F42C5E70801012096
:10588C000C01012000400540F0B50D1E15DD0E4B3E
:10589C000D271A680D4B4519D31859424B410C4929
:1058AC005B005E5E20210478A64207D09369194202
:1058BC00FCD101301460A842F5D1F0BD93691942B6
:1058CC00FCD11760F2E7C046580501200080FCBFF0
:1058DC009005022030B50500002912DD00201024AF
:1058EC00094B013D1A6893691C4208D10130936938
:1058FC001C42FCD113682B548142F4D130BD0028DA
:10590C00FCD103204042F9E758050120E12110B5F4
:10591C000B4B0C481B780C4B49021B780B4B18603B
:10592C00FCF7CCFD02210020FBF776FA02210120C6
:10593C00FBF772FA01210648FFF7BEFE10BDC04608
:10594C000003001000400340040300105805012020
:10595C0050F000207047C0460022014B1A7070476F
:10596C00770501204B790020FF2B0BD18B79002B75
:10597C0008D1CB79012B05D1082A03D98A78024B9F
:10598C0009301A707047C046770501200120704716
:10599C0070B5002915D115495379107909781B0276
:1059AC0003430020994200D070BD5378012B0AD0DC
:1059BC00022BF9D1002064220021FDF77DF8012093
:1059CC00F2E70120F0E79478D27805001202144334
:1059DC00D20502D5620A93401D000548FEF746FC2D
:1059EC007F210300214028009847C04677050120FD
:1059FC00554200000123037000487047C4E40020A6
:105A0C004A780B7812021A438B7810B51B041A4390
:105A1C00CB781B0613439622D200934200D010BDC4
:105A2C000348FEF723FC0021030008009847C046FA
:105A3C005542000070B5184C82B006000D002000D5
:105A4C0001A908F019F8002808D1D0231B061B68FF
:105A5C00019A9A421CD0200007F0EAFF002001F0C6
:105A6C001FFE002807D103256D42200008F074F8B2
:105A7C00280002B070BD002001F02AFE0028F2D0F0
:105A8C002A003100002001F02FFE051EEBD0ECE7C0
:105A9C0003256D42ECE7C04640050120F0B54F46AA
:105AAC00D6464646C0B5354B82B007000D001800EF
:105ABC0001A9994607F0E0FF002808D1D0231B0666
:105ACC001B68019A9A4252D0484607F0B1FF002059
